{
	"contracts/Clas7_ejer1.sol": {
		"HabitacionHotel": {
			"abi": [
				{
					"inputs": [],
					"stateMutability": "nonpayable",
					"type": "constructor"
				},
				{
					"inputs": [],
					"name": "book",
					"outputs": [],
					"stateMutability": "payable",
					"type": "function"
				},
				{
					"inputs": [],
					"name": "currentstatus",
					"outputs": [
						{
							"internalType": "enum HabitacionHotel.Room",
							"name": "",
							"type": "uint8"
						}
					],
					"stateMutability": "view",
					"type": "function"
				}
			],
			"devdoc": {
				"kind": "dev",
				"methods": {},
				"version": 1
			},
			"evm": {
				"assembly": "    /* \"contracts/Clas7_ejer1.sol\":855:1426  contract HabitacionHotel ... */\n  mstore(0x40, 0x80)\n    /* \"contracts/Clas7_ejer1.sol\":1007:1092  constructor (){... */\n  callvalue\n  dup1\n  iszero\n  tag_1\n  jumpi\n  revert(0x00, 0x00)\ntag_1:\n  pop\n    /* \"contracts/Clas7_ejer1.sol\":1044:1054  msg.sender */\n  caller\n    /* \"contracts/Clas7_ejer1.sol\":1028:1033  owner */\n  0x00\n  0x00\n    /* \"contracts/Clas7_ejer1.sol\":1028:1055  owner = payable(msg.sender) */\n  0x0100\n  exp\n  dup2\n  sload\n  dup2\n  0xffffffffffffffffffffffffffffffffffffffff\n  mul\n  not\n  and\n  swap1\n  dup4\n  0xffffffffffffffffffffffffffffffffffffffff\n  and\n  mul\n  or\n  swap1\n  sstore\n  pop\n    /* \"contracts/Clas7_ejer1.sol\":1078:1088  Room.libre */\n  0x00\n    /* \"contracts/Clas7_ejer1.sol\":1062:1075  currentstatus */\n  0x00\n  0x14\n    /* \"contracts/Clas7_ejer1.sol\":1062:1088  currentstatus = Room.libre */\n  0x0100\n  exp\n  dup2\n  sload\n  dup2\n  0xff\n  mul\n  not\n  and\n  swap1\n  dup4\n  0x01\n  dup2\n  gt\n  iszero\n  tag_4\n  jumpi\n  tag_5\n  tag_6\n  jump\t// in\ntag_5:\ntag_4:\n  mul\n  or\n  swap1\n  sstore\n  pop\n    /* \"contracts/Clas7_ejer1.sol\":855:1426  contract HabitacionHotel ... */\n  jump(tag_7)\n    /* \"#utility.yul\":7:187   */\ntag_6:\n    /* \"#utility.yul\":55:132   */\n  0x4e487b7100000000000000000000000000000000000000000000000000000000\n    /* \"#utility.yul\":52:53   */\n  0x00\n    /* \"#utility.yul\":45:133   */\n  mstore\n    /* \"#utility.yul\":152:156   */\n  0x21\n    /* \"#utility.yul\":149:150   */\n  0x04\n    /* \"#utility.yul\":142:157   */\n  mstore\n    /* \"#utility.yul\":176:180   */\n  0x24\n    /* \"#utility.yul\":173:174   */\n  0x00\n    /* \"#utility.yul\":166:181   */\n  revert\n    /* \"contracts/Clas7_ejer1.sol\":855:1426  contract HabitacionHotel ... */\ntag_7:\n  dataSize(sub_0)\n  dup1\n  dataOffset(sub_0)\n  0x00\n  codecopy\n  0x00\n  return\nstop\n\nsub_0: assembly {\n        /* \"contracts/Clas7_ejer1.sol\":855:1426  contract HabitacionHotel ... */\n      mstore(0x40, 0x80)\n      jumpi(tag_1, lt(calldatasize, 0x04))\n      shr(0xe0, calldataload(0x00))\n      dup1\n      0x05a8da72\n      eq\n      tag_2\n      jumpi\n      dup1\n      0x9e14e2b9\n      eq\n      tag_3\n      jumpi\n    tag_1:\n      revert(0x00, 0x00)\n        /* \"contracts/Clas7_ejer1.sol\":1292:1423  function book() public payable onlyvacnat costs(1 ether) {... */\n    tag_2:\n      tag_4\n      tag_5\n      jump\t// in\n    tag_4:\n      stop\n        /* \"contracts/Clas7_ejer1.sol\":965:990  Room public currentstatus */\n    tag_3:\n      callvalue\n      dup1\n      iszero\n      tag_6\n      jumpi\n      revert(0x00, 0x00)\n    tag_6:\n      pop\n      tag_7\n      tag_8\n      jump\t// in\n    tag_7:\n      mload(0x40)\n      tag_9\n      swap2\n      swap1\n      tag_10\n      jump\t// in\n    tag_9:\n      mload(0x40)\n      dup1\n      swap2\n      sub\n      swap1\n      return\n        /* \"contracts/Clas7_ejer1.sol\":1292:1423  function book() public payable onlyvacnat costs(1 ether) {... */\n    tag_5:\n        /* \"contracts/Clas7_ejer1.sol\":1147:1157  Room.libre */\n      0x00\n        /* \"contracts/Clas7_ejer1.sol\":1130:1157  currentstatus == Room.libre */\n      0x01\n      dup2\n      gt\n      iszero\n      tag_12\n      jumpi\n      tag_13\n      tag_14\n      jump\t// in\n    tag_13:\n    tag_12:\n        /* \"contracts/Clas7_ejer1.sol\":1130:1143  currentstatus */\n      0x00\n      0x14\n      swap1\n      sload\n      swap1\n      0x0100\n      exp\n      swap1\n      div\n      0xff\n      and\n        /* \"contracts/Clas7_ejer1.sol\":1130:1157  currentstatus == Room.libre */\n      0x01\n      dup2\n      gt\n      iszero\n      tag_15\n      jumpi\n      tag_16\n      tag_14\n      jump\t// in\n    tag_16:\n    tag_15:\n      eq\n        /* \"contracts/Clas7_ejer1.sol\":1121:1181  require (currentstatus == Room.libre, \"The room is ocupate\") */\n      tag_17\n      jumpi\n      mload(0x40)\n      0x08c379a000000000000000000000000000000000000000000000000000000000\n      dup2\n      mstore\n      0x04\n      add\n      tag_18\n      swap1\n      tag_19\n      jump\t// in\n    tag_18:\n      mload(0x40)\n      dup1\n      swap2\n      sub\n      swap1\n      revert\n    tag_17:\n        /* \"contracts/Clas7_ejer1.sol\":1340:1347  1 ether */\n      0x0de0b6b3a7640000\n        /* \"contracts/Clas7_ejer1.sol\":1252:1258  amount */\n      dup1\n        /* \"contracts/Clas7_ejer1.sol\":1239:1248  msg.value */\n      callvalue\n        /* \"contracts/Clas7_ejer1.sol\":1239:1258  msg.value >= amount */\n      lt\n      iszero\n        /* \"contracts/Clas7_ejer1.sol\":1231:1278  require(msg.value >= amount,\"Not enough money\") */\n      tag_21\n      jumpi\n      mload(0x40)\n      0x08c379a000000000000000000000000000000000000000000000000000000000\n      dup2\n      mstore\n      0x04\n      add\n      tag_22\n      swap1\n      tag_23\n      jump\t// in\n    tag_22:\n      mload(0x40)\n      dup1\n      swap2\n      sub\n      swap1\n      revert\n    tag_21:\n        /* \"contracts/Clas7_ejer1.sol\":1356:1361  owner */\n      0x00\n      0x00\n      swap1\n      sload\n      swap1\n      0x0100\n      exp\n      swap1\n      div\n      0xffffffffffffffffffffffffffffffffffffffff\n      and\n        /* \"contracts/Clas7_ejer1.sol\":1356:1370  owner.transfer */\n      0xffffffffffffffffffffffffffffffffffffffff\n      and\n        /* \"contracts/Clas7_ejer1.sol\":1356:1381  owner.transfer(msg.value) */\n      0x08fc\n        /* \"contracts/Clas7_ejer1.sol\":1371:1380  msg.value */\n      callvalue\n        /* \"contracts/Clas7_ejer1.sol\":1356:1381  owner.transfer(msg.value) */\n      swap1\n      dup2\n      iszero\n      mul\n      swap1\n      mload(0x40)\n      0x00\n      mload(0x40)\n      dup1\n      dup4\n      sub\n      dup2\n      dup6\n      dup9\n      dup9\n      call\n      swap4\n      pop\n      pop\n      pop\n      pop\n      iszero\n      dup1\n      iszero\n      tag_26\n      jumpi\n      returndatacopy(0x00, 0x00, returndatasize)\n      revert(0x00, returndatasize)\n    tag_26:\n      pop\n        /* \"contracts/Clas7_ejer1.sol\":1405:1417  Room.ocupado */\n      0x01\n        /* \"contracts/Clas7_ejer1.sol\":1389:1402  currentstatus */\n      0x00\n      0x14\n        /* \"contracts/Clas7_ejer1.sol\":1389:1417  currentstatus = Room.ocupado */\n      0x0100\n      exp\n      dup2\n      sload\n      dup2\n      0xff\n      mul\n      not\n      and\n      swap1\n      dup4\n      0x01\n      dup2\n      gt\n      iszero\n      tag_27\n      jumpi\n      tag_28\n      tag_14\n      jump\t// in\n    tag_28:\n    tag_27:\n      mul\n      or\n      swap1\n      sstore\n      pop\n        /* \"contracts/Clas7_ejer1.sol\":1188:1189  _ */\n      pop\n        /* \"contracts/Clas7_ejer1.sol\":1292:1423  function book() public payable onlyvacnat costs(1 ether) {... */\n      jump\t// out\n        /* \"contracts/Clas7_ejer1.sol\":965:990  Room public currentstatus */\n    tag_8:\n      0x00\n      0x14\n      swap1\n      sload\n      swap1\n      0x0100\n      exp\n      swap1\n      div\n      0xff\n      and\n      dup2\n      jump\t// out\n        /* \"#utility.yul\":7:187   */\n    tag_14:\n        /* \"#utility.yul\":55:132   */\n      0x4e487b7100000000000000000000000000000000000000000000000000000000\n        /* \"#utility.yul\":52:53   */\n      0x00\n        /* \"#utility.yul\":45:133   */\n      mstore\n        /* \"#utility.yul\":152:156   */\n      0x21\n        /* \"#utility.yul\":149:150   */\n      0x04\n        /* \"#utility.yul\":142:157   */\n      mstore\n        /* \"#utility.yul\":176:180   */\n      0x24\n        /* \"#utility.yul\":173:174   */\n      0x00\n        /* \"#utility.yul\":166:181   */\n      revert\n        /* \"#utility.yul\":193:304   */\n    tag_29:\n        /* \"#utility.yul\":272:273   */\n      0x02\n        /* \"#utility.yul\":265:270   */\n      dup2\n        /* \"#utility.yul\":262:274   */\n      lt\n        /* \"#utility.yul\":252:298   */\n      tag_41\n      jumpi\n        /* \"#utility.yul\":278:296   */\n      tag_42\n      tag_14\n      jump\t// in\n    tag_42:\n        /* \"#utility.yul\":252:298   */\n    tag_41:\n        /* \"#utility.yul\":193:304   */\n      pop\n      jump\t// out\n        /* \"#utility.yul\":310:433   */\n    tag_30:\n        /* \"#utility.yul\":353:360   */\n      0x00\n        /* \"#utility.yul\":382:387   */\n      dup2\n        /* \"#utility.yul\":371:387   */\n      swap1\n      pop\n        /* \"#utility.yul\":388:427   */\n      tag_44\n        /* \"#utility.yul\":421:426   */\n      dup3\n        /* \"#utility.yul\":388:427   */\n      tag_29\n      jump\t// in\n    tag_44:\n        /* \"#utility.yul\":310:433   */\n      swap2\n      swap1\n      pop\n      jump\t// out\n        /* \"#utility.yul\":439:562   */\n    tag_31:\n        /* \"#utility.yul\":493:502   */\n      0x00\n        /* \"#utility.yul\":526:556   */\n      tag_46\n        /* \"#utility.yul\":550:555   */\n      dup3\n        /* \"#utility.yul\":526:556   */\n      tag_30\n      jump\t// in\n    tag_46:\n        /* \"#utility.yul\":513:556   */\n      swap1\n      pop\n        /* \"#utility.yul\":439:562   */\n      swap2\n      swap1\n      pop\n      jump\t// out\n        /* \"#utility.yul\":568:707   */\n    tag_32:\n        /* \"#utility.yul\":659:700   */\n      tag_48\n        /* \"#utility.yul\":694:699   */\n      dup2\n        /* \"#utility.yul\":659:700   */\n      tag_31\n      jump\t// in\n    tag_48:\n        /* \"#utility.yul\":654:657   */\n      dup3\n        /* \"#utility.yul\":647:701   */\n      mstore\n        /* \"#utility.yul\":568:707   */\n      pop\n      pop\n      jump\t// out\n        /* \"#utility.yul\":713:943   */\n    tag_10:\n        /* \"#utility.yul\":810:814   */\n      0x00\n        /* \"#utility.yul\":848:850   */\n      0x20\n        /* \"#utility.yul\":837:846   */\n      dup3\n        /* \"#utility.yul\":833:851   */\n      add\n        /* \"#utility.yul\":825:851   */\n      swap1\n      pop\n        /* \"#utility.yul\":861:936   */\n      tag_50\n        /* \"#utility.yul\":933:934   */\n      0x00\n        /* \"#utility.yul\":922:931   */\n      dup4\n        /* \"#utility.yul\":918:935   */\n      add\n        /* \"#utility.yul\":909:915   */\n      dup5\n        /* \"#utility.yul\":861:936   */\n      tag_32\n      jump\t// in\n    tag_50:\n        /* \"#utility.yul\":713:943   */\n      swap3\n      swap2\n      pop\n      pop\n      jump\t// out\n        /* \"#utility.yul\":949:1118   */\n    tag_33:\n        /* \"#utility.yul\":1033:1044   */\n      0x00\n        /* \"#utility.yul\":1067:1073   */\n      dup3\n        /* \"#utility.yul\":1062:1065   */\n      dup3\n        /* \"#utility.yul\":1055:1074   */\n      mstore\n        /* \"#utility.yul\":1107:1111   */\n      0x20\n        /* \"#utility.yul\":1102:1105   */\n      dup3\n        /* \"#utility.yul\":1098:1112   */\n      add\n        /* \"#utility.yul\":1083:1112   */\n      swap1\n      pop\n        /* \"#utility.yul\":949:1118   */\n      swap3\n      swap2\n      pop\n      pop\n      jump\t// out\n        /* \"#utility.yul\":1124:1293   */\n    tag_34:\n        /* \"#utility.yul\":1264:1285   */\n      0x54686520726f6f6d206973206f63757061746500000000000000000000000000\n        /* \"#utility.yul\":1260:1261   */\n      0x00\n        /* \"#utility.yul\":1252:1258   */\n      dup3\n        /* \"#utility.yul\":1248:1262   */\n      add\n        /* \"#utility.yul\":1241:1286   */\n      mstore\n        /* \"#utility.yul\":1124:1293   */\n      pop\n      jump\t// out\n        /* \"#utility.yul\":1299:1665   */\n    tag_35:\n        /* \"#utility.yul\":1441:1444   */\n      0x00\n        /* \"#utility.yul\":1462:1529   */\n      tag_54\n        /* \"#utility.yul\":1526:1528   */\n      0x13\n        /* \"#utility.yul\":1521:1524   */\n      dup4\n        /* \"#utility.yul\":1462:1529   */\n      tag_33\n      jump\t// in\n    tag_54:\n        /* \"#utility.yul\":1455:1529   */\n      swap2\n      pop\n        /* \"#utility.yul\":1538:1631   */\n      tag_55\n        /* \"#utility.yul\":1627:1630   */\n      dup3\n        /* \"#utility.yul\":1538:1631   */\n      tag_34\n      jump\t// in\n    tag_55:\n        /* \"#utility.yul\":1656:1658   */\n      0x20\n        /* \"#utility.yul\":1651:1654   */\n      dup3\n        /* \"#utility.yul\":1647:1659   */\n      add\n        /* \"#utility.yul\":1640:1659   */\n      swap1\n      pop\n        /* \"#utility.yul\":1299:1665   */\n      swap2\n      swap1\n      pop\n      jump\t// out\n        /* \"#utility.yul\":1671:2090   */\n    tag_19:\n        /* \"#utility.yul\":1837:1841   */\n      0x00\n        /* \"#utility.yul\":1875:1877   */\n      0x20\n        /* \"#utility.yul\":1864:1873   */\n      dup3\n        /* \"#utility.yul\":1860:1878   */\n      add\n        /* \"#utility.yul\":1852:1878   */\n      swap1\n      pop\n        /* \"#utility.yul\":1924:1933   */\n      dup2\n        /* \"#utility.yul\":1918:1922   */\n      dup2\n        /* \"#utility.yul\":1914:1934   */\n      sub\n        /* \"#utility.yul\":1910:1911   */\n      0x00\n        /* \"#utility.yul\":1899:1908   */\n      dup4\n        /* \"#utility.yul\":1895:1912   */\n      add\n        /* \"#utility.yul\":1888:1935   */\n      mstore\n        /* \"#utility.yul\":1952:2083   */\n      tag_57\n        /* \"#utility.yul\":2078:2082   */\n      dup2\n        /* \"#utility.yul\":1952:2083   */\n      tag_35\n      jump\t// in\n    tag_57:\n        /* \"#utility.yul\":1944:2083   */\n      swap1\n      pop\n        /* \"#utility.yul\":1671:2090   */\n      swap2\n      swap1\n      pop\n      jump\t// out\n        /* \"#utility.yul\":2096:2262   */\n    tag_36:\n        /* \"#utility.yul\":2236:2254   */\n      0x4e6f7420656e6f756768206d6f6e657900000000000000000000000000000000\n        /* \"#utility.yul\":2232:2233   */\n      0x00\n        /* \"#utility.yul\":2224:2230   */\n      dup3\n        /* \"#utility.yul\":2220:2234   */\n      add\n        /* \"#utility.yul\":2213:2255   */\n      mstore\n        /* \"#utility.yul\":2096:2262   */\n      pop\n      jump\t// out\n        /* \"#utility.yul\":2268:2634   */\n    tag_37:\n        /* \"#utility.yul\":2410:2413   */\n      0x00\n        /* \"#utility.yul\":2431:2498   */\n      tag_60\n        /* \"#utility.yul\":2495:2497   */\n      0x10\n        /* \"#utility.yul\":2490:2493   */\n      dup4\n        /* \"#utility.yul\":2431:2498   */\n      tag_33\n      jump\t// in\n    tag_60:\n        /* \"#utility.yul\":2424:2498   */\n      swap2\n      pop\n        /* \"#utility.yul\":2507:2600   */\n      tag_61\n        /* \"#utility.yul\":2596:2599   */\n      dup3\n        /* \"#utility.yul\":2507:2600   */\n      tag_36\n      jump\t// in\n    tag_61:\n        /* \"#utility.yul\":2625:2627   */\n      0x20\n        /* \"#utility.yul\":2620:2623   */\n      dup3\n        /* \"#utility.yul\":2616:2628   */\n      add\n        /* \"#utility.yul\":2609:2628   */\n      swap1\n      pop\n        /* \"#utility.yul\":2268:2634   */\n      swap2\n      swap1\n      pop\n      jump\t// out\n        /* \"#utility.yul\":2640:3059   */\n    tag_23:\n        /* \"#utility.yul\":2806:2810   */\n      0x00\n        /* \"#utility.yul\":2844:2846   */\n      0x20\n        /* \"#utility.yul\":2833:2842   */\n      dup3\n        /* \"#utility.yul\":2829:2847   */\n      add\n        /* \"#utility.yul\":2821:2847   */\n      swap1\n      pop\n        /* \"#utility.yul\":2893:2902   */\n      dup2\n        /* \"#utility.yul\":2887:2891   */\n      dup2\n        /* \"#utility.yul\":2883:2903   */\n      sub\n        /* \"#utility.yul\":2879:2880   */\n      0x00\n        /* \"#utility.yul\":2868:2877   */\n      dup4\n        /* \"#utility.yul\":2864:2881   */\n      add\n        /* \"#utility.yul\":2857:2904   */\n      mstore\n        /* \"#utility.yul\":2921:3052   */\n      tag_63\n        /* \"#utility.yul\":3047:3051   */\n      dup2\n        /* \"#utility.yul\":2921:3052   */\n      tag_37\n      jump\t// in\n    tag_63:\n        /* \"#utility.yul\":2913:3052   */\n      swap1\n      pop\n        /* \"#utility.yul\":2640:3059   */\n      swap2\n      swap1\n      pop\n      jump\t// out\n\n    auxdata: 0xa26469706673582212208bd7295d9f716ae60ec386c5cb843e6730704b7e6388d3477a3d1e3dc377dec064736f6c634300081e0033\n}\n",
				"bytecode": {
					"linkReferences": {},
					"object": "6080604052348015600e575f5ffd5b50335f5f6101000a81548173ffffffffffffffffffffffffffffffffffffffff021916908373ffffffffffffffffffffffffffffffffffffffff1602179055505f5f60146101000a81548160ff02191690836001811115606f57606e6078565b5b021790555060a5565b7f4e487b71000000000000000000000000000000000000000000000000000000005f52602160045260245ffd5b610365806100b25f395ff3fe608060405260043610610028575f3560e01c806305a8da721461002c5780639e14e2b914610036575b5f5ffd5b610034610060565b005b348015610041575f5ffd5b5061004a6101b1565b6040516100579190610236565b60405180910390f35b5f6001811115610073576100726101c3565b5b5f60149054906101000a900460ff166001811115610094576100936101c3565b5b146100d4576040517f08c379a00000000000000000000000000000000000000000000000000000000081526004016100cb906102a9565b60405180910390fd5b670de0b6b3a764000080341015610120576040517f08c379a000000000000000000000000000000000000000000000000000000000815260040161011790610311565b60405180910390fd5b5f5f9054906101000a900473ffffffffffffffffffffffffffffffffffffffff1673ffffffffffffffffffffffffffffffffffffffff166108fc3490811502906040515f60405180830381858888f19350505050158015610183573d5f5f3e3d5ffd5b5060015f60146101000a81548160ff021916908360018111156101a9576101a86101c3565b5b021790555050565b5f60149054906101000a900460ff1681565b7f4e487b71000000000000000000000000000000000000000000000000000000005f52602160045260245ffd5b60028110610201576102006101c3565b5b50565b5f819050610211826101f0565b919050565b5f61022082610204565b9050919050565b61023081610216565b82525050565b5f6020820190506102495f830184610227565b92915050565b5f82825260208201905092915050565b7f54686520726f6f6d206973206f637570617465000000000000000000000000005f82015250565b5f61029360138361024f565b915061029e8261025f565b602082019050919050565b5f6020820190508181035f8301526102c081610287565b9050919050565b7f4e6f7420656e6f756768206d6f6e6579000000000000000000000000000000005f82015250565b5f6102fb60108361024f565b9150610306826102c7565b602082019050919050565b5f6020820190508181035f830152610328816102ef565b905091905056fea26469706673582212208bd7295d9f716ae60ec386c5cb843e6730704b7e6388d3477a3d1e3dc377dec064736f6c634300081e0033",
					"opcodes": "PUSH1 0x80 PUSH1 0x40 MSTORE CALLVALUE DUP1 ISZERO PUSH1 0xE JUMPI PUSH0 PUSH0 REVERT JUMPDEST POP CALLER PUSH0 PUSH0 PUSH2 0x100 EXP DUP2 SLOAD DUP2 PUSH20 0xFFFFFFFFFFFFFFFFFFFFFFFFFFFFFFFFFFFFFFFF MUL NOT AND SWAP1 DUP4 PUSH20 0xFFFFFFFFFFFFFFFFFFFFFFFFFFFFFFFFFFFFFFFF AND MUL OR SWAP1 SSTORE POP PUSH0 PUSH0 PUSH1 0x14 PUSH2 0x100 EXP DUP2 SLOAD DUP2 PUSH1 0xFF MUL NOT AND SWAP1 DUP4 PUSH1 0x1 DUP2 GT ISZERO PUSH1 0x6F JUMPI PUSH1 0x6E PUSH1 0x78 JUMP JUMPDEST JUMPDEST MUL OR SWAP1 SSTORE POP PUSH1 0xA5 JUMP JUMPDEST PUSH32 0x4E487B7100000000000000000000000000000000000000000000000000000000 PUSH0 MSTORE PUSH1 0x21 PUSH1 0x4 MSTORE PUSH1 0x24 PUSH0 REVERT JUMPDEST PUSH2 0x365 DUP1 PUSH2 0xB2 PUSH0 CODECOPY PUSH0 RETURN INVALID PUSH1 0x80 PUSH1 0x40 MSTORE PUSH1 0x4 CALLDATASIZE LT PUSH2 0x28 JUMPI PUSH0 CALLDATALOAD PUSH1 0xE0 SHR DUP1 PUSH4 0x5A8DA72 EQ PUSH2 0x2C JUMPI DUP1 PUSH4 0x9E14E2B9 EQ PUSH2 0x36 JUMPI JUMPDEST PUSH0 PUSH0 REVERT JUMPDEST PUSH2 0x34 PUSH2 0x60 JUMP JUMPDEST STOP JUMPDEST CALLVALUE DUP1 ISZERO PUSH2 0x41 JUMPI PUSH0 PUSH0 REVERT JUMPDEST POP PUSH2 0x4A PUSH2 0x1B1 JUMP JUMPDEST PUSH1 0x40 MLOAD PUSH2 0x57 SWAP2 SWAP1 PUSH2 0x236 JUMP JUMPDEST PUSH1 0x40 MLOAD DUP1 SWAP2 SUB SWAP1 RETURN JUMPDEST PUSH0 PUSH1 0x1 DUP2 GT ISZERO PUSH2 0x73 JUMPI PUSH2 0x72 PUSH2 0x1C3 JUMP JUMPDEST JUMPDEST PUSH0 PUSH1 0x14 SWAP1 SLOAD SWAP1 PUSH2 0x100 EXP SWAP1 DIV PUSH1 0xFF AND PUSH1 0x1 DUP2 GT ISZERO PUSH2 0x94 JUMPI PUSH2 0x93 PUSH2 0x1C3 JUMP JUMPDEST JUMPDEST EQ PUSH2 0xD4 JUMPI PUSH1 0x40 MLOAD PUSH32 0x8C379A000000000000000000000000000000000000000000000000000000000 DUP2 MSTORE PUSH1 0x4 ADD PUSH2 0xCB SWAP1 PUSH2 0x2A9 JUMP JUMPDEST PUSH1 0x40 MLOAD DUP1 SWAP2 SUB SWAP1 REVERT JUMPDEST PUSH8 0xDE0B6B3A7640000 DUP1 CALLVALUE LT ISZERO PUSH2 0x120 JUMPI PUSH1 0x40 MLOAD PUSH32 0x8C379A000000000000000000000000000000000000000000000000000000000 DUP2 MSTORE PUSH1 0x4 ADD PUSH2 0x117 SWAP1 PUSH2 0x311 JUMP JUMPDEST PUSH1 0x40 MLOAD DUP1 SWAP2 SUB SWAP1 REVERT JUMPDEST PUSH0 PUSH0 SWAP1 SLOAD SWAP1 PUSH2 0x100 EXP SWAP1 DIV PUSH20 0xFFFFFFFFFFFFFFFFFFFFFFFFFFFFFFFFFFFFFFFF AND PUSH20 0xFFFFFFFFFFFFFFFFFFFFFFFFFFFFFFFFFFFFFFFF AND PUSH2 0x8FC CALLVALUE SWAP1 DUP2 ISZERO MUL SWAP1 PUSH1 0x40 MLOAD PUSH0 PUSH1 0x40 MLOAD DUP1 DUP4 SUB DUP2 DUP6 DUP9 DUP9 CALL SWAP4 POP POP POP POP ISZERO DUP1 ISZERO PUSH2 0x183 JUMPI RETURNDATASIZE PUSH0 PUSH0 RETURNDATACOPY RETURNDATASIZE PUSH0 REVERT JUMPDEST POP PUSH1 0x1 PUSH0 PUSH1 0x14 PUSH2 0x100 EXP DUP2 SLOAD DUP2 PUSH1 0xFF MUL NOT AND SWAP1 DUP4 PUSH1 0x1 DUP2 GT ISZERO PUSH2 0x1A9 JUMPI PUSH2 0x1A8 PUSH2 0x1C3 JUMP JUMPDEST JUMPDEST MUL OR SWAP1 SSTORE POP POP JUMP JUMPDEST PUSH0 PUSH1 0x14 SWAP1 SLOAD SWAP1 PUSH2 0x100 EXP SWAP1 DIV PUSH1 0xFF AND DUP2 JUMP JUMPDEST PUSH32 0x4E487B7100000000000000000000000000000000000000000000000000000000 PUSH0 MSTORE PUSH1 0x21 PUSH1 0x4 MSTORE PUSH1 0x24 PUSH0 REVERT JUMPDEST PUSH1 0x2 DUP2 LT PUSH2 0x201 JUMPI PUSH2 0x200 PUSH2 0x1C3 JUMP JUMPDEST JUMPDEST POP JUMP JUMPDEST PUSH0 DUP2 SWAP1 POP PUSH2 0x211 DUP3 PUSH2 0x1F0 JUMP JUMPDEST SWAP2 SWAP1 POP JUMP JUMPDEST PUSH0 PUSH2 0x220 DUP3 PUSH2 0x204 JUMP JUMPDEST SWAP1 POP SWAP2 SWAP1 POP JUMP JUMPDEST PUSH2 0x230 DUP2 PUSH2 0x216 JUMP JUMPDEST DUP3 MSTORE POP POP JUMP JUMPDEST PUSH0 PUSH1 0x20 DUP3 ADD SWAP1 POP PUSH2 0x249 PUSH0 DUP4 ADD DUP5 PUSH2 0x227 JUMP JUMPDEST SWAP3 SWAP2 POP POP JUMP JUMPDEST PUSH0 DUP3 DUP3 MSTORE PUSH1 0x20 DUP3 ADD SWAP1 POP SWAP3 SWAP2 POP POP JUMP JUMPDEST PUSH32 0x54686520726F6F6D206973206F63757061746500000000000000000000000000 PUSH0 DUP3 ADD MSTORE POP JUMP JUMPDEST PUSH0 PUSH2 0x293 PUSH1 0x13 DUP4 PUSH2 0x24F JUMP JUMPDEST SWAP2 POP PUSH2 0x29E DUP3 PUSH2 0x25F JUMP JUMPDEST PUSH1 0x20 DUP3 ADD SWAP1 POP SWAP2 SWAP1 POP JUMP JUMPDEST PUSH0 PUSH1 0x20 DUP3 ADD SWAP1 POP DUP2 DUP2 SUB PUSH0 DUP4 ADD MSTORE PUSH2 0x2C0 DUP2 PUSH2 0x287 JUMP JUMPDEST SWAP1 POP SWAP2 SWAP1 POP JUMP JUMPDEST PUSH32 0x4E6F7420656E6F756768206D6F6E657900000000000000000000000000000000 PUSH0 DUP3 ADD MSTORE POP JUMP JUMPDEST PUSH0 PUSH2 0x2FB PUSH1 0x10 DUP4 PUSH2 0x24F JUMP JUMPDEST SWAP2 POP PUSH2 0x306 DUP3 PUSH2 0x2C7 JUMP JUMPDEST PUSH1 0x20 DUP3 ADD SWAP1 POP SWAP2 SWAP1 POP JUMP JUMPDEST PUSH0 PUSH1 0x20 DUP3 ADD SWAP1 POP DUP2 DUP2 SUB PUSH0 DUP4 ADD MSTORE PUSH2 0x328 DUP2 PUSH2 0x2EF JUMP JUMPDEST SWAP1 POP SWAP2 SWAP1 POP JUMP INVALID LOG2 PUSH5 0x6970667358 0x22 SLT KECCAK256 DUP12 0xD7 0x29 TSTORE SWAP16 PUSH18 0x6AE60EC386C5CB843E6730704B7E6388D347 PUSH27 0x3D1E3DC377DEC064736F6C634300081E0033000000000000000000 "
				},
				"gasEstimates": {
					"creation": {
						"codeDepositCost": "173800",
						"executionCost": "48829",
						"totalCost": "222629"
					},
					"external": {
						"book()": "infinite",
						"currentstatus()": "2604"
					}
				},
				"methodIdentifiers": {
					"book()": "05a8da72",
					"currentstatus()": "9e14e2b9"
				}
			},
			"storageLayout": {
				"storage": [
					{
						"astId": 3,
						"contract": "contracts/Clas7_ejer1.sol:HabitacionHotel",
						"label": "owner",
						"offset": 0,
						"slot": "0",
						"type": "t_address_payable"
					},
					{
						"astId": 9,
						"contract": "contracts/Clas7_ejer1.sol:HabitacionHotel",
						"label": "currentstatus",
						"offset": 20,
						"slot": "0",
						"type": "t_enum(Room)6"
					}
				],
				"types": {
					"t_address_payable": {
						"encoding": "inplace",
						"label": "address payable",
						"numberOfBytes": "20"
					},
					"t_enum(Room)6": {
						"encoding": "inplace",
						"label": "enum HabitacionHotel.Room",
						"numberOfBytes": "1"
					}
				}
			},
			"userdoc": {
				"kind": "user",
				"methods": {},
				"version": 1
			}
		}
	}
}